:020000040800F2
:100000000030002015290008C9270008CB27000868
:10001000CD270008CF270008D127000800000000E6
:10002000000000000000000000000000D3270008CE
:10003000D527000800000000D7270008D9270008AE
:100040006529000865290008652900086529000858
:100050006529000865290008652900086529000848
:100060006529000865290008652900086529000838
:100070006529000865290008652900086529000828
:100080006529000865290008652900086529000818
:10009000E9270008DD270008652900086529000810
:1000A00065290008652900086529000865290008F8
:1000B000652900086529000800000000652900087E
:1000C0006529000800000000000000006529000804
:1000D000000000006529000865290008652900085E
:1000E00065290008652900080000000000000000E4
:1000F0000000000000000000000000000000000000
:1001000000000000000000000000000000000000EF
:1001100000000000000000006529000865290008B3
:1001200000000000000000000000000000000000CF
:1001300000000000000000000000000000000000BF
:100140006529000865290008000000000000000083
:10015000000000000000000000000000000000009F
:10016000000000000000000000000000000000008F
:10017000000000000000000000000000000000007F
:080180000000000065290008E1
:1001880010B5054C237833B9044B13B10448AFF3C9
:1001980000800123237010BD7000002000000000C3
:1001A800782A000808B5034B1BB103490348AFF38D
:1001B800008008BD0000000074000020782A0008B4
:1001C80003685A004CBF43F0004323F0004318442F
:1001D800704700BF61B32DE9F84F01F1FF3A90462F
:1001E8000646D146002707EB090404EBD4746410D3
:1001F800E50071190846FFF7E3FFA245834605F1BC
:100208000800304409D0FFF7DBFFC34500F1FF3099
:1002180005D8404509D2671CE5E7C34505D9A7427B
:1002280002D004F1FF39DEE700210846BDE8F88F67
:1002380008467047012807D0022807D0044B002839
:100248000CBF1846002070470248704702487047A4
:1002580041090008450900084909000830B5244B40
:1002680083B004468D1E7BB301A92846AFF30080F6
:1002780020B301992A46FFF7ADFF0146F0B1FFF719
:100288009FFF4B68A064012B12D0002B01F10400E2
:1002980020DBFFF795FF0023E06423650368002B4C
:1002A8001CDBFFF78DFF00232061184603B030BD2B
:1002B800002323610523184603B030BD00232361C2
:1002C8000923184603B030BD0A490B48091AC9105A
:1002D8000191CFE70123E0642365DFE7C3F30360FF
:1002E800FFF7A8FF0028206114BF00230923DCE7DB
:1002F80000000000DC2C0008BC2B00080368DA07AB
:1003080010B5044606D49B0700F1480009D500F053
:1003180051FC2368590709D51A070ED5DB0613D5F2
:1003280010BD00F03FFC23685907F5D404F1D00054
:1003380000F048FC23681A07F0D404F5A87000F010
:1003480049FC2368DB06EBD404F5E870BDE81040EF
:1003580000F084BC036803B103441846704700BF2B
:1003680009207047704700BF70B504460D4608E085
:100378002B6C63612A462369214601209847082887
:1003880008D1296C2046FFF769FF06460028EFD000
:1003980002F023FB0728FBD13046296CFFF7E2FF68
:1003A800281D00F0F3FB00BF2DE9F0470C1D0546A2
:1003B80092460FCCADF5727D03AE0FC60FCC0FC6BB
:1003C8000FCC0FC694E80F0002ACD5F80C80D5F816
:1003D800189086E80F0000232846216C2360FFF759
:1003E8003DFFBAF1000F074614BF0A2609267FB160
:1003F800A36B46F010018DE810022A4663640120C1
:100408002B46C04778BB38460DF5727DBDE8F087AE
:10041800236C6B614FF4F07221467AA802F0D2FA8D
:100428002B697AAA294630469847889B82468DE8E8
:100438001002314663642A462B460120C04790B912
:100448004FF4F0727AA9204602F0BCFABAF1080F0C
:1004580006D1216C2846FFF701FF09260746C6E7A3
:10046800BAF1070F05D0092738460DF5727DBDE8AA
:10047800F0873846216CFFF775FF03A800F086FB6C
:10048800406C7047F0B5CB6B0B640E1D0F460446ED
:100498000FCEF9B001AD0FC50FCE0FC50FCE0FC5EA
:1004A80096E80F004FF0FF3685E80F00009606E04B
:1004B80023696A46214698470828054608D11099B5
:1004C8002046FFF7CBFE0028F2D0092079B0F0BD16
:1004D8006846FFF713FF062DF7D139462046FFF788
:1004E80043FF00BF30B4DD6BC160826119461D64F3
:1004F800002230BC58E700BF70B5C66843690B647A
:1005080026B10122FFF750FF02F067FA03690A4695
:1005180004460D46014602209847072807D00828B8
:1005280003D129462046FFF71FFF02F056FA30464E
:10053800296CFFF717FF281D00F028FBC2681AB1C5
:10054800CA6B0A6400222FE79CE700BF704700BF10
:10055800836813B1014601201847704700B5042984
:1005680007D8DFE801F00309060909000BB90F2ACB
:1005780005D902205DF804FB01205DF804FB00EBBF
:10058800820218465368019A13605DF804FB00BFA5
:1005980010B584B0002303AC0A4600941946FFF74F
:1005A800DDFF039804B010BD00B5042907D8DFE8C3
:1005B80001F00309060909000BB90F2A05D9022021
:1005C8005DF804FB01205DF804FB019900EB820251
:1005D8000968516018465DF804FB00BF10B584B087
:1005E80004AC002344F8042D0A4600941946FFF78A
:1005F800DBFF04B010BD00BFF0B5D36B1364151D4D
:1006080007460E460FCDADF50F7D17AC0FC40FCDC5
:100618000FC40FCD0FC495E80F004FF0FF3584E8E5
:100628000F00169510E016A8FFF7D8FF314616A858
:10063800B84716AA694678B9049B08209847052840
:1006480004460AD0092807D026996846FFF706FE0F
:100658006A460C210028E6D0092416A8FFF74EFEAA
:1006680020460DF50F7DF0BD2DE9F04F0D46C96C04
:100678008BB00C1D096807919146089400F0030B94
:100688001E46002B60D10902032307918DF82560CF
:100698008DF824302B6DBBF1020F08BFAC6B13F043
:1006A800010340D1019300F008030393D4F80080BC
:1006B800B8F1000F39D0022E43D0B4F80080678813
:1006C8000434AB6C27F0010A0F2148469A44FFF71F
:1006D8005FFF824533D828F001039A4450452CBF68
:1006E800002001207F0007F0020708F0010847EA10
:1006F8000807012F3ED035D3022F1CD1236823F0E1
:1007080000420292BBF1000F76D128B1039900296B
:100718007ED0002A00F0A680002B77DB029B0133F5
:1007280004EB8304C2E700230193022E3EDDFFF7AA
:1007380017FE002840D009200BB0BDE8F08F00203C
:10074800D0E767680834BCE7022BA3DC0B0CDAB2ED
:1007580009048DF82530022304EB820407918DF8F3
:10076800243097E7BBF1000F02D0002840F0BD808D
:1007780004349BE7BBF1000F25D1A8B194E80C0025
:10078800991C4FEAD272D6D005F15801013306916F
:1007980000F0A380201DFFF7DDFD06AB01462846CB
:1007A800AFF30080002877D108347FE707A94846CF
:1007B80000F0EEFA0028BED1019B002B5CD1082086
:1007C8000BB0BDE8F08F0D2148462F6AFFF7E0FE19
:1007D8008742E9D1AB6A9C42E6D12046FFF7F0FC9C
:1007E8000F2102464846FFF7F9FE48462A460021EF
:1007F800FFF7F4FE07209FE70D2148462F6AFFF711
:10080800C7FE874258D02368002B87DA043485E76F
:10081800029B3BB305F15803271DCDF810B0DDF856
:100828000C80DDF808A00596A3461C4602E0B245F8
:10083800B04616D038460694FFF78CFD06AB014645
:1008480000222846AFF3008008F10106043700288B
:10085800EDD0029B059E43455C46DDF810B0D2D131
:1008680000E05C4648460D21FFF792FE069B286291
:10087800AC626B6206205FE70F214846FFF788FEEF
:100888000E2102464846FFF7A9FE4846294A0F218D
:10089800FFF7A4FE07204FE707460D214846FFF75C
:1008A80077FE022F28621DD12B46069A43F82C2F7B
:1008B8006B62AC6206203FE7AB6A9C42A3D104227C
:1008C8000027A3180299A962EF622A636B63236861
:1008D800BB421DDB0123019320E748460D21FFF7AA
:1008E80057FE2862069B6B62E3E72046FFF768FC29
:1008F80004340646AC632846AFF3008000283FF472
:100908001AAF484632460F21FFF768FE072013E763
:100918000846013004EB8000FFF752FC0F21024625
:100928004846FFF75BFE48462A463946FFF756FE1B
:10093800072001E700000000002395E6012393E665
:10094800022391E6F0B50446C5B004290DD8DFE8C6
:1009580001F053030C310F00012B4FEA124695B2F8
:1009680062D17219102A40F29B80022045B0F0BD76
:10097800002BFAD1102AF8D82368D80600F1C680CF
:1009880022AE3046019200F073F9A06B019A002361
:10099800012505FA03F1114203D0016846F8231036
:1009A80004300133042BF4D1A063304600F056F92B
:1009B8000020DBE7032BD8D1150C97B2EB19102BCD
:1009C800D3D823681E0700F1B58022AE304600F068
:1009D80023F9ED00A36B4FB1043D711903EBC70078
:1009E80053F8042B41F8042F8342F9D13046A3630E
:1009F80000F0F0F80020B9E7002BB6D1A56B97B24C
:100A0800201D012606FA03F1394203F1010302D041
:100A1800296801600435102B00F10400F2D112F4AA
:100A280000503BD1A563A1E7052B9ED17719202F54
:100A38009BD80F2E66D92F46002D3AD12A4600277B
:100A4800002AA06B72DD00EBC202014644A800EB4D
:100A5800C6008C3851F8045B40F8045F9142F9D124
:100A6800084697B1102E324644A938BF102201EB30
:100A7800C202A2F5C4727900043A00EB810150F871
:100A8800045B42F8045F8842F9D1012B48D00F2E4D
:100A9800A16333D917B102A800F094F8002065E7E4
:100AA8000F2E3FF662AF00272268D10717D4002F18
:100AB80060D02268510745D4012B4DD00F2E06D89F
:100AC80022A8019300F07AF8019B002FB6D002A863
:100AD800019300F07BF8019BC6F11002B0E722F009
:100AE8000101052B2160019320463BD022F003022F
:100AF80040F8482B00F05AF8019BD8E722A800F0EC
:100B080059F8C7E7102FCED9103FCDE723F01003CF
:100B1800236004F5E870019200F0AAF8019A2FE723
:100B28000431A16322A800F03DF8B7E7002F99D15E
:100B38000146AAE723F00803236004F5A87000F033
:100B48006BF842E7204622F0040240F8D02B0193CC
:100B580000F03CF8019BAFE722A8019300F026F8CB
:100B6800019BB9E741F0020140F8481B00F026F864
:100B7800019B9CE7012B03D00F2E3FF65FAF9FE749
:100B880022A8019300F012F8019B57E700F1340105
:100B980091E838009C46A6464CF8045D90E8FF0FA3
:100BA800E54600BD90EC210B704700BF80EC210B9F
:100BB800704700BF90EC200B704700BF80EC200B03
:100BC800704700BFD0EC200B704700BFC0EC200B73
:100BD800704700BFF0EC0201F0EC0211F0EC0221CA
:100BE800F0EC0231F0EC0241F0EC0251F0EC026161
:100BF800F0EC0271F0EC0281F0EC0291F0EC02A151
:100C0800F0EC02B1F0EC02C1F0EC02D1F0EC02E140
:100C1800F0EC02F1704700BFE0EC0201E0EC0211D9
:100C2800E0EC0221E0EC0231E0EC0241E0EC0251A0
:100C3800E0EC0261E0EC0271E0EC0281E0EC029190
:100C4800E0EC02A1E0EC02B1E0EC02C1E0EC02D180
:100C5800E0EC02E1E0EC02F1704700BFB0FC01817A
:100C6800B0FC0191B0FC01A1B0FC01B1704700BF1C
:100C7800A0FC0181A0FC0191A0FC01A1A0FC01B194
:100C8800704700BFEC4600B52DE900502DE9FF1F65
:100C98004FF000032DE90C0001A9FFF7F3FBDDF885
:100CA80040E012B0704700BFEC4600B52DE9005097
:100CB8002DE9FF1F4FF000032DE90C0001A9FFF7F4
:100CC8001BFCDDF840E012B0704700BFEC4600B5F1
:100CD8002DE900502DE9FF1F4FF000032DE90C000E
:100CE80001A9FFF72BFCDDF840E012B0704700BF08
:100CF800EC4600B52DE900502DE9FF1F4FF0000329
:100D08002DE90C0001ABFFF7EDFBDDF840E012B078
:100D1800704700BFEC4600B52DE900502DE9FF1FD4
:100D28004FF000032DE90C0001AAFFF765FCDDF880
:100D380040E012B0704700BF027A1AB9437A43B94B
:100D4800B02070470368013A02721A020260180E56
:100D580070474268013B10B4437213680321141DA5
:100D680001721A02446002605DF8044B180E704765
:100D780000B585B003AA0023009219460C22FFF79C
:100D8800EDFB039805B05DF804FB00BFF0E700BF7A
:100D98002DE9F043064685B00F464FF00008384667
:100DA800FFF7CAFFB028044623D0050627D400233E
:100DB8000DF10C09194685000D22CDF8009030463A
:100DC800FFF7CCFBEDB2039BCDF80090600605F170
:100DD80004054CBF5D1BED18002319460D22304653
:100DE8000395FFF7E1FB3846FFF7A6FFB028044656
:100DF800DBD1B8F1000F00F0958000201CE000F076
:100E0800F003802B5DD0902B19D0A02B2CD0B02BC9
:100E18003FD0C02B6CD000F0F803D02B0BD100F0E2
:100E28000702013242F40022052301213046FFF770
:100E380089FD0028B3D0092005B0BDE8F08300F093
:100E48000D030D2BF7D003AD002300F00F02194658
:100E580000953046FFF782FB0023009519460D22C6
:100E68003046FFF7A1FB9AE7C24302F007034FF4AD
:100E78007F621A41010702F47F624FF0000348BF06
:100E880042F4804219463046FFF75CFD0028D2D173
:100E980085E7B12857D0B22868D0B32800F09580EC
:100EA80000F0FC03B42BC6D000F007020132012386
:100EB80042F4002219463046FFF744FD0028BAD113
:100EC8006DE73846FFF738FF24020443B4F5004FB6
:100ED800B1D024010023A2B219463046FFF732FDF3
:100EE8000028A8D114F4004F18BF4FF0010856E7A6
:100EF800C6287DD0C72800F0868000F0F803C02BF4
:100F080000F09480C82800F09F80C92893D1384603
:100F1800FFF712FF020300F00F0002F47022013005
:100F2800024381E703AC43460E2241460094304613
:100F3800FFF714FB0094304643460F224146FFF763
:100F480033FB404678E73846FFF7F6FE00283FF4C3
:100F580072AF10F0F0037FF46EAF024619463046C8
:100F6800FFF7F0FC00287FF466AF18E700230DF1C7
:100F78000C090D221946CDF800903046FFF7EEFA1D
:100F88003846FFF7D9FE02064FF002040CD5039B42
:100F980000F07F00A040034438460393FFF7CCFEDF
:100FA800030604F10704F2D4039BCDF8009000F087
:100FB8007F02A24003F501740023144419460D2250
:100FC80030460394FFF7F0FAE9E63846FFF7B4FE37
:100FD800010300F00F0001F47021421C01230A43B1
:100FE80030461946FFF7AEFC00287FF424AFD6E65A
:100FF8003846FFF7A1FE010300F00F0001F470214D
:10100800421C0323EBE73846FFF796FE00283FF41F
:1010180012AF10F0F0037FF40EAF02460421304601
:10102800FFF790FC00287FF406AFB8E600F00F0247
:101038000132032342F4202219463046FFF782FC8E
:1010480000287FF4F8AEAAE63846FFF775FE00F0F0
:10105800F00200F00F031032013343EA0232E3E6F4
:1010680010B5C36C84B05A6803208DF80C00DC7985
:101078008DF80D4012020833084601A90192029327
:10108800FFF786FE04B010BD08B5FFF77FFE806C41
:1010980008BD00BF08B5FFF779FEC06CC37900EB47
:1010A8008300083008BD00BF08B501F096FC00BFFA
:1010B80008B5FFF7F9FF00BF38B50E4A0E4B0546D5
:1010C80018784FF47A73B3FBF0F31068B0FBF3F0C1
:1010D80000F088FA044658B90F2D09D80246294667
:1010E8004FF0FF3000F03EFA044B20461D6038BD3B
:1010F800012038BD08000020000000200400002066
:10110800074A08B5136843F010031360032000F082
:1011180017FA0020FFF7D0FF01F03AFB002008BDC6
:1011280000200240034A044B11681B780B441360EB
:10113800704700BFB400002000000020014B186871
:10114800704700BFB400002038B5044600286ED0B0
:1011580090F820300BB901F06DF92268136823F07C
:1011680002031360FFF7EAFF054623685A689107F0
:1011780051D41A6842F001021A60FFF7DFFF0546F2
:1011880023685A68D20754D5227E012A1A680CBFF0
:1011980042F0800222F080021A60627E012A1A68F8
:1011A8000CBF42F0400222F040021A60A27E012ADF
:1011B8001A680CBF42F0200222F020021A60E27E78
:1011C800012A1A680CBF22F0100242F010021A60BD
:1011D800227F012A1A680CBF42F0080222F0080296
:1011E8001A60627F012A1A680CBF42F0040222F0DA
:1011F80004021A60E168A2680A4321690A43616926
:101208000A43616801390A43DA61002001236062F8
:1012180084F8203038BDFFF791FF401B0A28A4D975
:10122800636A43F400336362052384F820300120A5
:1012380038BDFFF783FF401B0A28A1D9F0E7F0B5B6
:1012480090F82040013C012C6BD8066841B9F4683D
:10125800A40707D1436A43F4001343620120F0BD99
:101268003469F5E70C013519D5F8B07107F00407B2
:101278009760002F4BD1D5F8B0717F0D1760D5F866
:10128800B071C7F34007D760D5F8B47107F00F07FE
:101298001761D5F8B471D5F8B4512644C7F30727B8
:1012A8002D0C97615561D6F8B8211A70026822444E
:1012B800D2F8B821120A5A7002682244D2F8B8212A
:1012C800120C9A7002682244D2F8B821120EDA7011
:1012D80002682244D2F8BC211A7102682244D2F86A
:1012E800BC21120A5A7102682244D2F8BC21120C9D
:1012F8009A7102681444D4F8BC21120EDA7103689A
:1013080051B9DA6842F02002DA600020F0BDD5F861
:10131800B071FF085760B2E71A6942F020021A61FB
:10132800F3E7436A43F4802397E7704770477047B1
:1013380070477047704770477047704770477047ED
:1013480070472DE9F84F03685E69D3F804909F68E9
:10135800D3F80CB0D3F810A0D3F8188016F0010415
:10136800054622D017F0010407D00122B9079A6078
:1013780040F1A380FFF7D9FF0024FB0509D52B68AE
:101388004FF48072B8059A6040F1A5802846FFF7AF
:10139800CDFFFB0309D52B684FF48032B8039A6060
:1013A80040F1A7802846FFF7C2FF330707D51BF097
:1013B800100F1FBF2B68102244F40074DA607707FF
:1013C80008D51BF0080F05D02B680822DA602846DC
:1013D800FFF7B1FFB00706D52B68DB68990702D085
:1013E800284600F0E7FF720607D51AF0100F1FBF56
:1013F8002B68102244F480641A61B30608D51AF0E9
:10140800080F05D02B6808221A612846FFF795FFB8
:10141800F70606D52B681B69980702D02846FFF700
:101428008BFFB10308D519F0100F05D02B681022D7
:101438005A602846FFF782FFF20308D519F0080F13
:1014480005D02B6808225A602846FFF778FF330436
:101458002AD519F0040F2A6824D0F70504D518F006
:10146800010F18BF44F00104B00504D518F0020FAD
:1014780018BF44F00204710504D518F0040F18BF12
:1014880044F0040433050DD518F070030AD0302B4E
:101498004CD03CD8102B43D0202B44D0936923F058
:1014A80070039361042353602CB16B6A1C436C6214
:1014B8002846FFF745FFBDE8F88F7A0705D417F0EF
:1014C800080405D1FFF734FF57E74FF4006454E7E9
:1014D8004FF4805451E7790502D544F4005458E795
:1014E8003A0502D544F4804453E72846FFF721FF24
:1014F8004FE7790302D544F4004456E73A0302D58E
:1015080044F4803451E72846FFF714FF4DE7502B89
:101518000FD0602B10D0402BC0D144F04004BDE761
:1015280044F00804BAE744F01004B7E744F0200494
:10153800B4E744F08004B1E744F48074AEE70000F7
:10154800074AD36823F4E0631B041B0C43F0BF6312
:10155800000243F4003300F4E0600343D3607047B3
:1015680000ED00E0174B30B5DC68C4F30224C4F189
:101578000703251D042B28BF0423062D4FF0010562
:1015880005FA03F303F1FF338CBF033C0024194031
:10159800A14005FA04F4013C2240002842EA010275
:1015A8004FEA0212AFBF00F1604000F00F00064B97
:1015B800D2B2A5BF00F56140D2B21A5480F8002318
:1015C80030BD00BF00ED00E014ED00E0420901234A
:1015D80000F01F0003FA00F0014B43F822007047A7
:1015E80000E100E00138B0F1807F0AD2064B074ADB
:1015F8005860F02182F823100020072298601A60B2
:1016080070470120704700BF10E000E000ED00E0E7
:101618002DE9F04F85B00B68DFF86481564A0193D5
:101628004FF00F090023019CDC4002D105B0BDE852
:10163800F08F012404FA03FA019C14EA0A0500F069
:1016480093804C6824F0100BBBF1020F11D1DF0816
:1016580000EB870703F0070E3E6A4FEA8E0E09FA81
:101668000EFC26EA0C0C0E6906FA0EF646EA0C0683
:101678003E624FEA430C0327066807FA0CF7FF435C
:1016880004F0030E3E400EFA0CFE0BF1FF3B4EEA4F
:101698000606BBF1010F066011D8866806EA070B3B
:1016A800CE6806FA0CFE4EEA0B068660466826EA05
:1016B8000A0AC4F300169E4046EA0A064660C6684F
:1016C80037408E6806FA0CF63743E600C7604BD5FC
:1016D800D8F8186046F00106C8F81860D8F81860FD
:1016E80023F0030707F1804706F0010607F5803766
:1016F800039603F0030E039EBE684FEA8E0E09FAA6
:101708000EFCB0F1904F26EA0C0C2FD01B4EB042C5
:101718002ED006F58066B0422CD006F58066B04221
:1017280014BF0526032606FA0EF646EA0C06BE6026
:101738001668EF4314F4803F0CBF3E402E431660FA
:10174800566814F4003F0CBF3E402E43566096681E
:1017580014F4801F0CBF3E402E439660D668A40246
:1017680054BF3E402E43D66001335CE70026DAE7DB
:101778000126D8E70226D6E7000401400004004805
:10178800001002400AB18161704781627047436965
:1017980059404161704700002DE9F347054618B9E3
:1017A800012002B0BDE8F0870368DA0711D42B687E
:1017B8009B0700F185802B681C0700F1F6802B68D9
:1017C800580700F13F81EA69002A40F0D6810020DD
:1017D800E7E7BA4C636803F00C03042B07D063688F
:1017E80003F00C03082B16D16368DF0313D54FF4FD
:1017F800003393FAA3F2216893FAA3F3B3FA83F3BD
:1018080003F01F03012202FA03F30B42CFD06B68E7
:10181800002BCCD1C4E76A68B2F5803F25D1236894
:1018280043F480332360E36AA96823F00F030B4372
:10183800E36252B3FFF782FC4FF40036804601277B
:1018480096FAA6F3226896FAA6F3B3FA83F303F09E
:101858001F0307FA03F31342A9D1FFF76FFCA0EBAC
:1018680008006428ECD903209BE7236832B923F4E5
:1018780080332360236823F48023D3E7B2F5A02FB5
:10188800F5D143F480232360C9E7FFF757FC4FF4F1
:1018980000368046012796FAA6F3226896FAA6F340
:1018A800B3FA83F303F01F0307FA03F313423FF479
:1018B8007EAFFFF743FCA0EB08006428EBD9D2E722
:1018C8007E4C636813F00C0F07D0636803F00C03B9
:1018D800082B22D16368DE031FD4022393FAA3F2F4
:1018E800216893FAA3F3B3FA83F303F01F030122E9
:1018F80002FA03F30B4203D02B6993427FF450AFF3
:101908002168F82393FAA3F3B3FA83F26B6993403F
:1019180021F0F802134323604DE72A6901260AB330
:1019280096FAA6F3B3FA83F303F1845303F5841309
:101938009B0002271E60FFF701FC804697FAA7F379
:10194800226897FAA7F3B3FA83F303F01F0306FAA2
:1019580003F31342D4D1FFF7F1FBA0EB08000228F0
:10196800ECD980E796FAA6F3B3FA83F303F184532C
:1019780003F584139B0002271A60FFF7DFFB8046FC
:1019880097FAA7F3226897FAA7F3B3FA83F303F059
:101998001F0306FA03F313423FF40DAFFFF7CEFB24
:1019A800A0EB08000228EBD95DE7AA69434E444939
:1019B80001241AB394FAA4F3B3FA83F30B449B00FB
:1019C80002271C60FFF7BAFB804697FAA7F397FA3D
:1019D800A7F397FAA7F3726A97FAA7F3B3FA83F310
:1019E80003F01F0304FA03F313427FF4E8AEFFF792
:1019F800A5FBA0EB08000228E7D934E794FAA4F382
:101A0800B3FA83F30B449B0002271A60FFF796FB97
:101A1800804697FAA7F397FAA7F397FAA7F3726A9B
:101A280097FAA7F3B3FA83F303F01F0304FA03F357
:101A380013423FF4C4AEFFF781FBA0EB0800022875
:101A4800E7D910E71D4CE369D90034D4E36943F0C2
:101A58008053E361E36903F080530193019B0126FE
:101A6800184F3B68DA052FD5EB68012B3DD1236A67
:101A780043F001032362FFF761FB02278246B94660
:101A88004FF0010897FAA7F397FAA7F3002B6CD049
:101A9800226A99FAA9F3B3FA83F303F01F0308FA49
:101AA80003F3134258D0002E3FF48DAEE36923F0C0
:101AB8008053E36187E60026D2E700BF00100240AA
:101AC80020819010007000403B6843F480733B60B5
:101AD800FFF734FB80463B68DB05C5D4FFF72EFBD8
:101AE800A0EB08006428F6D9BDE63BBB236A23F0C7
:101AF80001032362236A23F004032362FFF71EFB1A
:101B080002278246B9464FF0010897FAA7F397FAD9
:101B1800A7F373B3226A99FAA9F3B3FA83F303F02C
:101B28001F0308FA03F31342BDD0FFF707FB41F286
:101B38008833A0EB0A009842E7D994E6052B236A7C
:101B480003D143F00403236291E723F001032362E6
:101B5800236A23F004038DE7FFF7F0FA41F2883394
:101B6800A0EB0A0098428DD97DE697FAA7F3626A3E
:101B78008FE797FAA7F3626ACDE7414C636803F0F1
:101B88000C03082B3FF40CAE022A4FF0807352D19D
:101B980093FAA3F3B3FA83F303F1845303F584139D
:101BA8009B0000221A60FFF7C9FA4FF000778046C1
:101BB800012697FAA7F3226897FAA7F3B3FA83F3F3
:101BC80003F01F0306FA03F313422DD162686B6A10
:101BD800296A22F474120B43134363604FF0807335
:101BE80093FAA3F3B3FA83F303F1845303F584134D
:101BF8009B004FF000751E60FFF7A0FA012607460C
:101C080095FAA5F3226895FAA5F3B3FA83F303F0DE
:101C18001F0306FA03F313427FF4D9ADFFF78EFAD8
:101C2800C01B0228ECD91EE6FFF788FAA0EB0800D3
:101C38000228BED917E693FAA3F3B3FA83F303F1A4
:101C4800845303F584139B0000221A60FFF776FA89
:101C58004FF000750746012695FAA5F3226895FA14
:101C6800A5F3B3FA83F303F01F0306FA03F3134251
:101C78003FF4ADADFFF762FAC01B0228ECD9F2E5DC
:101C88000010024010B5134C616801F00C03082BDA
:101C98001ED14FF4701393FAA3F301F47012B3FA40
:101CA80083F322FA03F30C4AD05CE36A0F2292FA18
:101CB800A2F2B2FA82F203F00F03D340074AD25CD1
:101CC800CB034ABF064B074BB3FBF2F3584310BD97
:101CD800034810BD00100240902A0008A02A0008FE
:101CE80000127A0000093D002DE9F0410D46044636
:101CF80010B90120BDE8F0814C4A136803F00703CE
:101D08008B422ED32268910736D4D2073CD4474A57
:101D1800136803F007039D4275D32268444D12F0FF
:101D2800040F7CD1130706D56B68226923F460532E
:101D380043EAC2036B60FFF7A5FF6B68F02292FAD3
:101D4800A2F2B2FA82F203F0F003D340394AD35C2C
:101D5800D840394B18600020FFF7AEF90020BDE8E5
:101D6800F081136823F007030B431360136803F033
:101D780007039942BDD1C5E72D49A0684B6823F0F8
:101D8800F00303434B60C0E76268294E012A27D15C
:101D98004FF4003393FAA3F1316893FAA3F3B3FA3B
:101DA80083F303F01F0302FA03F30B42A1D0736815
:101DB80023F003031A437260FFF7C0F941F2883831
:101DC80007467368626803F00C03B3EB820F9ED07A
:101DD800FFF7B4F9C01B4045F3D90320BDE8F081F3
:101DE800022A0CBF4FF00073022393FAA3F1306864
:101DF80093FAA3F3B3FA83F303F01F03012101FA63
:101E080003F30342D2E7136823F007032B4313605D
:101E1800136803F007039D427FF46BAF7DE76B689F
:101E2800E16823F4E0630B436B607BE7002002402A
:101E380000100240B42A000808000020084B4FF4A4
:101E4800E0625B6892FAA2F2B2FA82F203F4E0630B
:101E5800D340044AD35C044A1068D840704700BF96
:101E680000100240C42A000808000020084B4FF464
:101E780060525B6892FAA2F2B2FA82F203F46053FB
:101E8800D340044AD35C044A1068D840704700BF66
:101E980000100240C42A00080800002038B5044693
:101EA80005682169A368C26928680B4361690B4307
:101EB8004949134301400B432B606B68E168206A72
:101EC80023F440530B436B60A968A36921F4306184
:101ED80003430B43AB60414B9D4212D103F558437A
:101EE8003F491B6B03F00303B2F5004FCB5C3BD1BA
:101EF800082B36D8DFE803F00F2124352D3535358A
:101F08003000384B9D4203D003F580639D425ED17B
:101F1800B2F5004F31D1FFF791FF61684A0802EB33
:101F28004003B3FBF1F39BB2002023F00F022168BA
:101F3800C3F342031343CB6038BDFFF797FFECE7C9
:101F48006068430803F5740303F51053B3FBF0F31B
:101F5800E9E7FFF797FEE0E76068430803F5803399
:101F6800F4E701200023E0E7082B33D8DFE803F08B
:101F780005101B32273232322A00FFF75FFF6368F1
:101F880000EB5300B0FBF3F080B2E860002038BDEE
:101F9800FFF76CFF636800EB5300B0FBF3F00F4BE7
:101FA80080B2D860F2E76268530803F5F40303F5DA
:101FB8009053B3FBF2F3094A9BB2D360E6E7FFF70D
:101FC80061FEE7E76268530803F50043F1E7B2F5FD
:101FD800004FC6D0012038BDF369FFEF003801403B
:101FE800B02A000800440040436ADA0710B506D555
:101FF8000168846A4A6822F4003222434A609C07D6
:1020080006D50168C46A4A6822F4803222434A60CD
:10201800590706D50168046B4A6822F480222243D6
:102028004A601A0706D50168446B4A6822F40042E0
:1020380022434A60DC0606D50168846B8A6822F46C
:10204800805222438A60990606D50168C46B8A6863
:1020580022F4005222438A605A060FD50168046CA4
:102068004A6822F480122243B4F5801F4A6005D1E1
:102078004A68446C22F4C00222434A601B0606D513
:102088000268816C536823F400230B43536010BD2E
:102098002DE9F041069D04460F46164698462168EC
:1020A800CA6937EA02030CBF01220022B24202D0F9
:1020B8000020BDE8F0816B1CF2D09DB923681A6836
:1020C80022F4D0721A609A6822F001029A602023E2
:1020D80084F8693084F86A30002384F86830032073
:1020E800BDE8F081FFF72AF8A0EB08008542D6D2B8
:1020F800E4E773B504460026C666FFF71FF82368B1
:102108001B681A07054617D423681B685B070AD59E
:102118006FF07E43009300222B464FF48001204647
:10212800FFF7B6FFA0B92023002084F8693084F8AF
:10213800680084F86A300CE06FF07E430093324602
:1021480003464FF400112046FFF7A2FF0028DBD01A
:10215800032002B070BD10B5044660B390F8693032
:1021680003F0FF021BB980F8682000F09DFB22688D
:10217800242384F86930136823F001031360204690
:10218800FFF78CFE012816D0636A13B12046FFF7CB
:102198002BFF23685A6822F490425A609A6822F00A
:1021A8002A029A601A6842F0010220461A60BDE8C5
:1021B8001040FFF79EBF012010BD80B582B000AF70
:1021C80078607B6858687B681B8801221946FFF78E
:1021D800D9FA00BF0837BD4680BD80B582B000AFD0
:1021E80078607B6858687B681B8800221946FFF76F
:1021F800C9FA00BF0837BD4680BD000080B582B06F
:1022080000AF78607B689B88013B072B49D801A207
:1022180052F823F03D2200084922000857220008FE
:102228006522000873220008812200088F22000816
:102238009D2200087B681B681846FFF7BEFF30E048
:102248007B681B6808331846FFF7B7FF29E07B68EF
:102258001B6810331846FFF7B0FF22E07B681B6845
:1022680018331846FFF7A9FF1BE07B681B6820336B
:102278001846FFF7A2FF14E07B681B68283318464E
:10228800FFF79BFF0DE07B681B6830331846FFF7AC
:1022980094FF06E07B681B6838331846FFF78DFF0C
:1022A80000BF00BF0837BD4680BD00BF80B582B003
:1022B80000AF78607B689B88013B072B49D801A257
:1022C80052F823F0ED220008F9220008072300083D
:1022D8001523000823230008312300083F230008A2
:1022E8004D2300087B681B681846FFF776FF30E02F
:1022F8007B681B6808331846FFF76FFF29E07B6887
:102308001B6810331846FFF768FF22E07B681B68DC
:1023180018331846FFF761FF1BE07B681B68203302
:102328001846FFF75AFF14E07B681B6828331846E5
:10233800FFF753FF0DE07B681B6830331846FFF743
:102348004CFF06E07B681B6838331846FFF745FFEB
:1023580000BF00BF0837BD4680BD00BF80B582B052
:1023680000AF7860114B1B78002B1BD0104B5B68BB
:102378009B089BB203F00F039AB27B689A800C4BC0
:102388005B689B09DBB2212B03D17868FFF736FF26
:1023980008E0074B5B689B09DBB2222B02D1786807
:1023A800FFF784FF00BF0837BD4680BDB00000209E
:1023B8009400002080B582B000AF7860084B094ACD
:1023C80000217868FEF73BFF01210748FFF7DFF996
:1023D800064B01221A7000BF0837BD4680BD00BFFA
:1023E8008C0000209400002000040048B000002069
:1023F8000E480F494FF0807208B50423C2604FF4AD
:10240800C02280E80A000261002301228360436140
:10241800037642768376C37603774277FEF794FE97
:1024280018B1BDE8084000F0ACB908BDB8000020FC
:102438000064004010B5044688B01422002103A8A7
:1024480000F0B8FA22681B4B9A4231D103F5D63313
:1024580003A9DA6942F00072DA61DA6902F00072FF
:102468000192019A5A6942F400325A615B6903F495
:1024780000330293029B4FF4C05303930223049347
:10248800032306934FF0904009230793FFF7C0F802
:10249800002211461420FFF765F81420FFF796F87C
:1024A800002215201146FFF75DF81520FFF78EF87A
:1024B80008B010BD00640040F0B589B014220021B6
:1024C80003A800F077FA254B254D5A6942F480029B
:1024D8005A615A6902F480020092009A5A6942F4D9
:1024E80000325A615A6902F400320192019A5A691B
:1024F80042F480225A615B6903F4802302932846E0
:102508000022FB21029BFFF73DF900224FF4E06116
:102518004FF09040FFF736F900240126032303A962
:10252800284603930227049605940694FFF770F84B
:102538004FF4E06303A94FF0904003930496059786
:102548000694FFF765F8F82303A928460393049631
:1025580005970694FFF75CF809B0F0BD001002403B
:102568000004004880B485B000AFF860B9607A60B4
:10257800FB68183300221A605A60FB68002283F84F
:102588002020FB68002283F82120FB68002283F8C2
:102598002220FB6800225A62FB68BA689A62FB68CC
:1025A8007A68DA62FB6818461437BD465DF8047B22
:1025B800704780B584B000AFF860B9601346FB80FF
:1025C800FB68FA881A80FB68BA685A60FB880022A0
:1025D8001946B868FFF7D6F8FB6818461037BD46A5
:1025E80080BD000080B582B000AF78607B681022A3
:1025F80023491846FFF7DDFF7B6808330822204986
:102608001846FFF7D6FF7B6810334FF480624FF00F
:1026180090411846FFF7CDFF7B6818334FF40072DE
:102628004FF090411846FFF7C4FF7B6820334FF402
:1026380080724FF090411846FFF7BBFF7B68283344
:1026480020220F491846FFF7B4FF7B683033402239
:102658000B491846FFF7ADFF7B68383380220849DD
:102668001846FFF7A6FF7B6840330022042118466E
:10267800FFF778FF7B6818460837BD4680BD00BF66
:102688000004004880B483B000AF786039607B688C
:102698003A681A607B6800229A807B6818460C3773
:1026A800BD465DF8047B704780B59EB000AFFEF76D
:1026B80027FD00F017F8FFF7FFFEFFF799FE00F07F
:1026C800D5F807F108031846FFF78CFF07F1080251
:1026D8003B4611461846FFF7D5FF3B461846FFF71D
:1026E8003DFEFAE780B590B000AF07F11803282245
:1026F8000021184600F05EF93B1D00221A605A605E
:102708009A60DA601A610123BB614FF48033FB6180
:1027180000233B620123BB6202237B634FF48033B7
:10272800BB634FF4E013FB6307F118031846FFF788
:1027380033F80346002B14BF01230023DBB2002B20
:1027480001D000F01EF80F237B600223BB6000233A
:10275800FB604FF480633B6100237B613B1D0221DA
:102768001846FFF7C1FA0346002B14BF01230023C4
:10277800DBB2002B01D000F004F800BF4037BD46A3
:1027880080BD80B400AF00BFBD465DF8047B7047D4
:102798000A4B9A6942F001029A619A6982B002F082
:1027A80001020092009ADA6942F08052DA61DB692C
:1027B80003F080530193019B02B070470010024060
:1027C8007047FEE7FEE7FEE7FEE770477047704791
:1027D800FEF7A8BC0148FEF7B4BD00BFB800002052
:1027E800FFF7F8BF0120704708B500F0B9F81623C5
:1027F80003604FF0FF3008BD08B500F0B1F81623AC
:102808000360FEE71549D1F8883043F47003C1F836
:102818008830134B1A6842F001021A605868114A4E
:1028280002405A601A6822F0847222F480321A60D8
:102838001A6822F480221A605A6822F4FE025A604A
:10284800DA6A22F00F02DA62186B074A02401A634A
:1028580000229A604FF000638B60704700ED00E043
:10286800001002400CC07FF8CCFC00FF08B50C48F3
:102878000C4B4FF4164E80E808400C22002383606E
:10288800C360036142618361C36103624362FFF70E
:1028980062FC18B1BDE80840FFF773BF08BD00BF70
:1028A800E00000200044004010B5044688B014221F
:1028B800002103A800F07EF82268134B9A4221D128
:1028C80003F5E63303A9DA6942F40032DA61DA691A
:1028D80002F400320192019A5A6942F400325A61B4
:1028E8005B6903F400330293029B48F204030393E9
:1028F80002230493032306934FF090400723079382
:10290800FEF786FE08B010BD00440040DFF834D062
:10291800002103E00C4B5B58435004310B480C4B2F
:1029280042189A42F6D30B4A02E0002342F8043BCD
:10293800094B9A42F9D3FFF765FF00F017F8FFF744
:10294800B3FEFEE700300020E42C00080000002061
:10295800700000207000002054010020FEE70000F5
:10296800014B1868704700BF0C00002070B50D4E71
:102978000D4CA41BA4100025A54209D10B4E0C4CEC
:1029880000F076F8A41BA4100025A54205D170BD5F
:1029980056F8253098470135EEE756F82530984720
:1029A8000135F2E7DC2C0008DC2C0008DC2C0008E0
:1029B800E02C000802440346934200D1704703F814
:1029C800011BF9E710B5431E0A44914200D110BD1E
:1029D80011F8014B03F8014FF7E708B5062000F09E
:1029E8002BF80120FFF708FF1F2938B504460D46CC
:1029F80004D9162303604FF0FF3038BD426C12B182
:102A080052F821304BB9204600F030F82A460146EA
:102A18002046BDE8384000F017B8012B0AD0591CF1
:102A280003D116230360012038BD002442F8254055
:102A380028469847002038BD024B01461868FFF722
:102A4800D3BF00BF0C00002038B5074C0023054653
:102A5800084611462360FFF7C7FE431C02D12368CE
:102A680003B12B6038BD00BF50010020FFF7BABE8C
:102A7800F8B500BFF8BC08BC9E467047F8B500BF63
:082A8800F8BC08BC9E46704733
:102A900002030405060708090A0B0C0D0E0F10109F
:102AA0000102030405060708090A0B0C0D0E0F109E
:102AB00000040802000000000000000001020304FE
:102AC00006070809000000000102030400000000DE
:102AD00000000000000000000000000000000000F6
:102AE00000000000000000000000000000000000E6
:102AF00000000000000000000000000000000000D6
:102B000000000000000000000000000000000000C5
:102B100000000000000000000000000000000000B5
:0C2B2000000000000000000000000000A9
:102B2C0001970181B0B00884000000000197018179
:102B3C00B0B008840000000001970181B0B0088497
:102B4C000000000001970181B0B008840000000073
:102B5C0001970181B0B00884000000000197018149
:102B6C00B0B008840000000003970181B0B0088465
:102B7C000000000001970181B0B008840000000043
:102B8C001D970181B0B00884000000000F970181EF
:102B9C00B0B008840000000008B10181B0B000841E
:102BAC000000000008B10181B0B0008400000000FA
:102BBC000CD6FF7F01000000A0D6FF7FB0A90280D9
:102BCC0038D7FF7FB0B0A88088D7FF7F0100000006
:102BDC0094D7FF7FB0B0AA80CCD7FF7FAE71B28004
:102BEC009CD8FF7F0100000098D8FF7FAB3F388056
:102BFC00F0D8FF7F01000000FCD8FF7FB0B0AA80A6
:102C0C0038D9FF7F01000000ECD9FF7FAB0EB280FA
:102C1C0054DAFF7FB0AF0A801CDDFF7F010000009B
:102C2C0020DDFF7FAB3F048060DFFF7F01000000F1
:102C3C003CE1FF7F0084048050E1FF7F0100000035
:102C4C004CE1FF7FB0AD048014E4FF7FB0A803809B
:102C5C0034E4FF7F44FFFF7F38E4FF7F48FFFF7FB2
:102C6C0044E4FF7F010000004EF5FF7FB4FEFF7FC0
:102C7C0066F5FF7FB8FEFF7F80F5FF7FBCFEFF7F10
:102C8C0028F6FF7FC0FEFF7FD0F6FF7FC4FEFF7FDC
:102C9C0020F7FF7FC8FEFF7F54F7FF7F0100000085
:102CAC000EF9FF7FC4FEFF7F38F9FF7FC8FEFF7F60
:102CBC00D0F9FF7F01000000ECF9FF7FC4FEFF7F1D
:102CCC0020FAFF7FC8FEFF7FB6FAFF7F01000000ED
:042CDC00AD0100083E
:042CE000890100085E
:102CE400010000001000000000127A001000002013
:102CF40000000000EC2A00080C2B0008CC2A000875
:102D040000000000000000000000000000000000BF
:102D140000000000000000000000000000000000AF
:102D2400000000000000000000000000000000009F
:102D3400000000000000000000000000000000008F
:102D4400000000000000000000000000000000007F
:0400000508002915B1
:00000001FF
